:020000041000EA
:1000000000B5324B212058609868022188439860DF
:10001000D860186158612E4B002199600221596106
:100020000121F02299502B49196001219960352056
:1000300000F044F80222904214D00621196600F024
:1000400034F8196E01211966002018661A6600F04E
:100050002CF8196E196E196E052000F02FF8012189
:100060000842F9D1002199601B49196000215960AB
:100070001A491B48016001219960EB211966A021F2
:10008000196600F012F800219960164914480160C1
:100090000121996001BC002800D000471248134993
:1000A000086003C880F30888084703B5996A0420EC
:1000B0000142FBD001200142F8D103BD02B5186610
:1000C0001866FFF7F2FF186E186E02BD00000240BE
:1000D000000000180000070000035F00212200005C
:1000E000F4000018222000A00001001008ED00E03C
:1000F00000000000000000000000000074B24E7A12
:1001000000200420F7010010C3010010C5010010F9
:10011000C1010010C1010010C1010010C101001097
:10012000C1010010C1010010C1010010C701001081
:10013000C1010010C1010010C9010010CB01001065
:10014000CD010010CD010010CD010010CD01001037
:10015000CD010010CD010010CD010010CD01001027
:10016000CD010010CD010010CD010010CD01001017
:10017000CD010010CD010010CD010010CD01001007
:10018000CD010010CD010010CD010010CD010010F7
:10019000CD010010CD010010CD010010CD010010E7
:1001A000CD010010CD010010CD010010CD010010D7
:1001B000CD010010CD010010CD010010CD010010C7
:1001C00000BE00BE00BE00BE00BE00BEEFF3058054
:1001D000103800BEF2EB887198E30410BCE3041001
:1001E0003402001090A31AE700201F49086006C8D7
:1001F00081F3088810471D48006800282FD10DA4FE
:100200000ECC002902D000F012F8F9E71849194A7B
:10021000002000E001C19142FCD1174988471749ED
:1002200088471749884700BEFDE701C901C29A42C5
:10023000FBD37047BCE30410C0000020781D0020F1
:100240009400051000000420000004209400051014
:10025000001004200010042000000000704709482E
:1002600003F0B2FD0047000008ED00E0000000D000
:10027000981D0020ACDC0020092B00108105001027
:10028000C52A00105756000006005250ABB3605309
:100290005034011006005250861C030260340110D5
:1002A000060052505422A29D68340110050052509D
:1002B000DE65F46894000510F8B5C04610B5064C2C
:1002C0002378002B07D1054B002B02D0044800E017
:1002D00000BF0123237010BDE81E002000000000B5
:1002E00068210110044B10B5002B03D003490448CA
:1002F00000E000BF10BDC04600000000EC1E002062
:100300006821011010B504000B4911F001FD00280F
:1003100007D00A49200011F0FBFC002806D000207D
:1003200010BD074804F0D4FA0648F9E7064804F07F
:10033000CFFA0648F4E7C046682101108021011079
:10034000702101107807002084210110DC170020A3
:10035000F8B506000F00002400E00134F368A34262
:100360000CDDE3001B1BDD00336B9C466544281D40
:10037000390011F0CDFC0028EFD100E00025280065
:10038000F8BD000010B50400081E0ADBA3688B420C
:1003900007DD134A94420BD0124A944213D0002432
:1003A00004E00100104804F0C3FA0024200010BD4E
:1003B000642103F035FD04308000045921000B480E
:1003C00004F0B6FAF2E7CA17072111400B18DB1048
:1003D00004339B001C592100054804F0A9FAE5E705
:1003E00078070020DC17002094210110B0210110B3
:1003F000D8210110F0B5C64600B54E4CA544050005
:1004000080225200010046A811F02EFD4A4946A85C
:1004100011F060FD041E42D0FFF774FF051E48D0A6
:100420004549002011F056FD061E47D00100280066
:10043000FFF78EFF071E45D03F49002011F04AFD0F
:10044000061E44D011F0DEFB8046002802D133782E
:10045000302B40D1AB68434542DD41462800FFF7D1
:1004600091FF7B6B012B55DD3349002011F032FDEC
:10047000051E3AD00A2203A911F00EFE039BAB42DF
:1004800008D01B78002B05D1002803DB80231B023A
:1004900098422EDB2900294804F04AFA03E029009B
:1004A000274804F045FA86239B009D4480BCB8464B
:1004B000F0BD2100234804F03BFAF4E7224804F0A1
:1004C00007FAF0E73100214804F032FAEBE7204860
:1004D00004F0FEF9E7E731001E4804F029FAE2E7EC
:1004E00041461D4804F024FADDE71C4804F0F0F909
:1004F000D9E73B6804AA137041465170011291700C
:10050000D0700190424600922200154906A803F0DF
:1005100029FC0AE03B686A46137441465174009115
:100520002200104906A803F01DFC06A90E4804F09D
:10053000FFF9B8E7E8FDFFFFFC210110CC22011014
:10054000002201101C220110342201104C22011043
:10055000642201107822011094220110B4220110AB
:10056000E8220110182301104823011010B51400CF
:100570005068FFF73FFF200006F09EF810BD000016
:1005800010B596B01A491B4804F066FB03210820F9
:1005900000F036FA0321092000F032FA002201218E
:1005A000082000F045FA00220121092000F040FA5D
:1005B00004F0CAF90DF02AFD0F4A104910480DF059
:1005C000A1FC104B1593104B149314AA15A901A864
:1005D00000F0FAF90AF0F8FC04000C4A0C490AF0A1
:1005E000EBFA00220B4920000AF0C0FCFEE7C046EF
:1005F000A0860100C8180020040040004C23011010
:1006000058230110C0A80401FFFFFF00552400007B
:10061000C05C01106D05001030B50400002303E03C
:10062000A218527802329B189A225200934209DA99
:100630001A00E018E55CFF2D02D08D42F0D102E0F7
:10064000002000E0002030BD0368197001215970BE
:10065000D91C9A70016070470368197004215970A1
:10066000110E9970110CD970110A1971991D5A71D6
:100670000160704770B50500140002681170961C87
:10068000547022001900300003F0FAFF34192C6076
:1006900070BD0000F0B5CE46474680B583B0070078
:1006A000894614001D000AAB1B88984680235B0214
:1006B0009A4200D3194CA022A1B29200362006F033
:1006C00039F8061E26D022004946406803F0D8FFBC
:1006D0002A062B02FF2109040B401A432B0AFF2193
:1006E00009020B401A432D0E154301953868434605
:1006F00001AA31000AF0BEFB0500300005F0DCFF66
:10070000002D05D1200003B0C0BCB946B046F0BDF5
:100710002800F8E70C204042F5E7C046FFFF000044
:1007200070B504000E0015000AF04EFC2060002891
:1007300005D0320029000AF019FC002070BD0C2001
:100740004042FBE710B50A00006802490AF034FA9B
:1007500010BDC046C05C0110F0B5DE4657464E469F
:100760004546E0B58F4CA544060014001289F22AD4
:100770000BD8200005F0A0FF93239B009D44F0BC04
:10078000BB46B246A946A046F0BD8922002392008E
:1007900009A9200006F0AAF9F228EAD909AB022239
:1007A0001A70023231000DA803F06AFF44AB0893BF
:1007B00045A808903521FFF72FFF0028D9D083786E
:1007C000012B00D1A4E0032BD3D1322145A8FFF7A0
:1007D00023FF051ECDD002300322310011F01EFA96
:1007E0000028C6D16F793D00103DEDB2072DC0D86D
:1007F0006B1CDB009846B044062210A9404611F05D
:100800000DFA00280BD006226749404611F006FA7F
:100810000028AED1062210A9404603F031FF01F0B6
:10082000F7FB002900DAB2E000D1B6E0FA2292002C
:10083000002303F05BFB5D4B9C466044000C0135DC
:10084000ED007519E88009ADEF740522352108A87F
:10085000FFF7FAFE297F6A7FAB7F9B46E87F202760
:10086000EF5D2123EB5C9C462B7C98466B7C994684
:10087000AB7CED7C069505934B460493434603936E
:1008800063460293019700905B46494804F050F894
:100890004FE0484B484A3F21484802F017F9FA21F7
:1008A000890003F0E5FA4B46181A2AD40137072FBE
:1008B00033DC7D1CED007519062210A9280011F00B
:1008C000ADF9002828D04346082BEFD1062236493F
:1008D000280011F0A3F9002800D1B8467B1CDB00EA
:1008E000F318DB881B04364A1A43914601F090FB4B
:1008F0000029CEDBD3D0FA229200002303F0F6FACF
:10090000D1E706220021280003F0B4FEB846CDE767
:10091000002708239846CAE7B8464346082B00D16B
:1009200027E7103309AAD3740222352108A8FFF75C
:100930008BFE33000422362108A8FFF79BFE331DEF
:100940000422012108A8FFF795FE330004220321A9
:1009500008A8FFF78FFE33000422062108A8FFF73E
:1009600089FE184A332108A8FFF776FE089B5A1C17
:100970000892FF221A7009A9089B5A1A0123300015
:100980004830442500955B42FFF784FEF1E6094BB1
:10099000094A3F21094802F099F8FA21890003F039
:1009A00067FA48E7B4FDFFFF0C240110005C260540
:1009B000C023011060230110142401107C230110B6
:1009C000FFFF00008051010070B504000B68036058
:1009D0001368436008304022002103F04BFE2500DD
:1009E0004835064A21002800FFF79AFE002800D06B
:1009F00070BD43212800FFF7A5FEF9E75907001055
:100A000010B58300084A944663441C684022624043
:100A1000C02414408022520113431C60C000034BC9
:100A20009C466044416010BD04C00140004001404C
:100A300080000B4B9C46604400290DD00823002AFF
:100A40000CD004221343026853400C22134080222E
:100A500052011043036070470023F0E70022F1E7E2
:100A600004C00140002909D08000094B9C46604425
:100A700080239B0118430223036070478000044BCE
:100A80009C466044C0239B01184302230360F4E7A3
:100A900004C0014070B5D0231B061B689D00094CA3
:100AA0002C59204207D19B002043064C18510D20A1
:100AB00000F0D0F970BD044B044ACC21044802F088
:100AC00005F8C04618DA00202C240110E824011093
:100AD0005824011010B50400D0231B061B689B008E
:100AE0000A4A9B5818420BD00D2000F0CDFAD023B3
:100AF0001B061B6805499B005A58A2435A5010BD5B
:100B0000034B044AD621044801F0E0FF18DA002024
:100B100098240110C4240110582401100723034015
:100B20009B00C00899403C308000014BC150704789
:100B300000400140F8B507000C0016001D00FFF74B
:100B4000EDFFFB089B00ED18072038408000844033
:100B5000002E04D080239B011D432C60F8BDC023D0
:100B60009B011D432C60F9E710B5D0231B061B68C1
:100B7000002B03D0024BFFF7DDFF10BD014BFAE75E
:100B8000304101400041014010B501238340D02293
:100B90001206936293610521FFF732FF10BD00003A
:100BA000034B1B6802201840431E9841C0B2704797
:100BB00000C00640EFF3108072B6034B1B68002B99
:100BC000FBD0BFF35F8F70472C0100D0BFF35F8F66
:100BD000024B00221A6080F3108870472C0100D06D
:100BE000F8B506000C001500FFF7E4FFE308F7185E
:100BF000F15C07222240012393400B4205D1DBB276
:100C00000B433B70FFF7E2FFF8BD2100280001F025
:100C1000F7FFF0B583B00600019114001F00FFF745
:100C2000C9FF00E00134BC420CD8E308F518F35CBE
:100C30000721214001228A401A42F3D1D2B21A433D
:100C40002A7001E001246442FFF7C0FF002C02DBA0
:100C5000200003B0F0BD019B002BF9D0089801F0F3
:100C6000CFFF000070B505000C00FFF7A3FFE308FD
:100C7000EE18EA5C07210C400123A340134204D084
:100C80009A433270FFF7A2FF70BD034B034A2C3129
:100C9000034801F01BFFC0461C2501107C250110F4
:100CA0003C250110002307E0054A9A189200BFF383
:100CB0005F8F0021116001331F2BF5D97047C046AB
:100CC00040000034054A1078431CDBB21370172B28
:100CD00002D9130010221A707047C0461018002065
:100CE000074B9B68103080001950BFF35F8FBFF334
:100CF0005F8F044B0021196082F310887047C04653
:100D000000ED00E0240100D01F23181A70470000F6
:100D100010B5091A081F0A4B9C466144094A9142C2
:100D200008D8C30706D440104005400D064B1843B1
:100D300080B210BD054B064AA321064801F0C6FE4D
:100D4000FC070000FE0F000000E0FFFF8C250110F3
:100D5000F8270110BC25011010B5091A04394C08F8
:100D6000090B08D14905490D064A11430180064B7C
:100D70002343438010BD054B054AAB21054801F0D4
:100D8000A5FEC04600F0FFFF00F8FFFFF8250110A8
:100D9000CC270110BC25011001238340034A1068B1
:100DA0001840431E9841C0B27047C04600E100E0C1
:100DB000002904D0034B1860034B18607047034BA5
:100DC0001860FBE780E200E000E100E080E100E085
:100DD00010B5012383401800FFF7EAFF10BD0000A3
:100DE00001238340014A13607047C04600E200E0DF
:100DF000024B9B6810308000C058704700ED00E047
:100E000070B504000D00EFF3108672B60C4B1B6832
:100E1000002BFBD0BFF35F8F2000FFF7E9FF094BEA
:100E2000984201D0A84205D1320029002000FFF7E6
:100E300057FF70BD044B054A8621054801F046FE68
:100E4000240100D0CD010010082601102C2801102B
:100E5000BC250110F0B5DE4657464E464546E0B586
:100E600089B0814601911500EFF3108A72B6744B78
:100E70001B68002BFBD0BFF35F8F724B0027DF573F
:100E8000002F40DB7C00E419A4006F4824180622E0
:100E9000A2566C4B1A706D4B9A684B4610339B00F0
:100EA000D35898461E001B1A2F2B38D9684B9845EB
:100EB0002FD105AE674B33807B009B46D81980004D
:100EC000614B9846404402306349FFF721FF708030
:100ED000624BB380FF23B371F571019B07935F44AD
:100EE000BF0047440ECE0EC701231C43A046524606
:100EF00041464846FFF7F4FE09B0F0BCBB46B24697
:100F0000A946A046F0BD564B564AD721564801F097
:100F1000DDFD564B534ADE21534801F0D7FDC04357
:100F200040440C2102F0A4FF002912D101239E436A
:100F3000B34633000026DA79AA4211D90621595660
:100F400000290CDB4A00521892001E003E4B9B18F1
:100F5000F1E7474B434AEA21434801F0B7FD1E0041
:100F6000002E3AD005AB434A1A80813A5A800623B4
:100F7000F3560293002B17DA3F4805AB9B46988047
:100F8000029A9A71DD71019A0792301D2100FFF7D4
:100F9000BFFEB080B7717B00DB199B002A4FFF18A2
:100FA0005B4607CB07C7A2E77800C0198000264B35
:100FB000C0180430321DB388D90A1C2907D15B053B
:100FC0005915023149005118FFF7A2FED5E72B4B06
:100FD0002B4AB121244801F079FD05AE1D4B338029
:100FE0007B000293D8198000174A904602004244C1
:100FF0000392901C1849FFF78BFE7080039A101D16
:101000005946FFF785FEB0801E4B5A464146521A9C
:10101000524153431B0DB371F571019A0792029B24
:101020009C466744BF0047440ECE0EC7114B5A463C
:101030001380813B538001231C43A04657E7C046E1
:10104000240100D09FDC00201418002000ED00E0F7
:10105000CD01001000A1FFFF4418002001BDFFFFDB
:101060004026011014280110BC250110682601102B
:10107000902601100148000001BD00000427011066
:1010800004280110AAAA0000F0B5CE46474680B554
:1010900083B006000D00EFF3108872B6564B1B6844
:1010A000002BFBD0BFF35F8F544B9A683400103491
:1010B000A300D758524B9F4207D0AF4200D198E0CF
:1010C0000197504BFB1A2F2B09D9424639003000AB
:1010D000FFF706FE03B0C0BCB946B046F0BD300015
:1010E000FFF75AFE814600213000FFF771FEBFF383
:1010F0005F8FEFF30581002901D08C4211D10123CC
:10110000019C9C430022A368AB4212D00622A25647
:10111000002A0DDB53009B189B002200394CE41879
:10112000F1E73621384B394AFF31394801F0CEFC1E
:101130002200AB4256D106256557002D38DB6B00E7
:101140005B199A002F4B9B189A68A260DA79E271BA
:1011500006229A56A2719B795BB2002B0FDA2D48BA
:10116000A0806B005B199B00264AD3182A4A11788D
:101170009971157049463000FFF72AFEA5E7201D3A
:101180006B005B199B001F4A9B181A1D9B88D90A8C
:101190001C2907D15B055B15023359005118FFF775
:1011A000B7FDDDE71D4B1E4AB121194801F08EFC49
:1011B000002912D1002A0ED0FF239371194B93807E
:1011C000154A1378A371184B0E49641A644163439E
:1011D0001B0D1370CEE70A4FF2E7201D1349FFF7EE
:1011E000BBFDC7E76A21124B084AFF31084801F0EE
:1011F0006DFC034F69E7C046240100D000ED00E01C
:10120000CD010010141800201C270110E427011044
:10121000BC25011001BD00009FDC00200427011047
:101220000428011001BDFFFFAAAA00004E180020EB
:101230005027011010B5032304009C43064A94462E
:10124000644422681840C000FC3383409A43130072
:1012500081400B43236010BD00E400E070B5012124
:1012600001432E4BCB1A2F2B28D8EFF30583002BED
:101270002BD0EFF3108C72B6294A1268002AFBD0EB
:10128000BFF35F8F274A0400244D641B644162430F
:10129000120D54B2244A92689B00D2588A421BD045
:1012A0000022032A32D853009B189B001B49CB18FD
:1012B0009B795BB2A3421FD00132F2E7C7211B4BDF
:1012C0001B4A49001B4801F001FC92211A4B184AA5
:1012D000FF31184801F0FAFB134A92681749D150C0
:1012E000174B1A7882711C70BFF35F8F0C4B002272
:1012F0001A608CF3108870BD0D0053009918890096
:101300006918FF268E710F4A8A80E9E7D1210E4BBA
:10131000074A4900074801F0D9FBC04614180020CD
:10132000240100D0AAAA000000ED00E05827011017
:10133000B0270110BC25011080270110CD0100103D
:101340009FDC002001BDFFFF8C2701100022044B11
:1013500002E0044902C30132072AFAD97047C046A5
:1013600000E400E08080808010B5FFF7CDFC010034
:101370000148FFF777FC10BDA8DC002000B583B062
:101380000100064B0093052300220548FFF741FCAE
:10139000002801DB1F23181A03B000BD9427011099
:1013A000A8DC002070B504000E001500FFF78AFCD1
:1013B0000100200000F006F8A680E580BFF35F8FF3
:1013C00070BD0000024B9C4661448900016070477B
:1013D0004000003410B50400FFF774FC0100200049
:1013E000FFF7F0FFFF232371BFF35F8F10BD10B530
:1013F0000400FFF767FC01002000FFF7E3FFFF2375
:10140000237100236371BFF35F8F10BD70B50500BA
:101410000C00080000F0D8FE0949200000F018FE7A
:10142000FFF750FC074B9C466044800068602C75B9
:10143000D0231B061B786B75A400034BE55070BDD1
:1014400051170010400000344CCA00200A4B1A68A3
:10145000EFF3108172B61368002BFCD0BFF35F8FDF
:10146000054B1B68BFF35F8F00221A6081F3108861
:1014700040BF0020002170473CDC002010B500294F
:1014800022D003681B7B99421ED8174B9C466144AF
:10149000090183689C4661440C684968002A19D098
:1014A00003681B7B9A4215D883680F4884466244C0
:1014B00012019A1810685368020001208B4201D86B
:1014C0000ED00020C0B210BD084B094A3C2109488B
:1014D00001F0FCFA054B064A3C21064801F0F6FAF9
:1014E000A242EFD8EDE7C046FFFFFF0F9829011099
:1014F000F82B01106029011010B500291ED0037BC4
:1015000099421BD84B005B18033B0468A446634414
:10151000002919D0002A1DD0914221D0002A25D0BF
:10152000047BA24222D80468500080180338201897
:101530008170197800291FD11A7010BD104B114A03
:101540006821114801F0C2FA104B114A6F310E4860
:1015500001F0BCFA0F4B0E4A70210B4801F0B6FAAD
:101560000D4B0B4A7121084801F0B0FA044B054AB3
:101570006821054801F0AAFA41701A70DDE7C046FB
:10158000BC290110642C0110D8290110202A011057
:10159000402C01102C2A0110382A011070B50600C9
:1015A0000D001400002914D0002A14D0806873683C
:1015B0009847002806D0220029003000FFF79CFF42
:1015C000280007E02A0021003000FFF795FF2000E7
:1015D00000E0100070BD0800FCE70000F0B583B02B
:1015E0000500009201930AAB1C780BAB1F78002C0E
:1015F00026D003685A7B944207D10123002B19D1CE
:10160000002C3BD1200003B0F0BD002C0CD01A7B85
:10161000944209D81A6863001B19033BD3189B78BE
:10162000002BEBD00123E9E73E4B3F4A68213F48BE
:1016300001F04CFA3E4B3F4A67213F4801F046FA21
:1016400003689C7B002CDBD012D01A7B94420FD80D
:1016500062001219033A19688C46624451789973F2
:10166000002900D1D9730023937053701370C7E71A
:101670002C4B2D4A68212D4801F028FA002C3AD035
:101680002B681B7B9C4236D82C4BE3181B01AA68A5
:1016900094466344009A1A60019A5A60089A9A60C4
:1016A000099ADA602E68002C2BD030D0337B9C4214
:1016B0002DD863001B19033B326894466344002213
:1016C0009A705A701A70717B22003000FFF766FF23
:1016D0007073844200D095E7287D009A019B00F04A
:1016E000FFFC061E01D0002F17D00C9B002B00D151
:1016F00088E71E7086E7124B124A3C210E4801F023
:10170000E5F9114B114AA521084801F0DFF9054B15
:10171000054A6821054801F0D9F92868210000F040
:1017200017FFE2E7BC290110642C0110D829011031
:10173000502A0110702C011060290110FFFFFF0FCB
:1017400098290110F82B01105C290110542C01106C
:10175000F0B5DE4657464E464546E0B58BB009909B
:10176000002308938200B54BD658370052E0B44BA3
:10177000B44A3F21B44801F0A9F9B44BB44A3C2122
:10178000B44801F0A3F9002901D1002869D1002152
:10179000404600F0D3FEA04219D12A686B68069239
:1017A0000793AB689846EB689A464346002B14D0E3
:1017B000002C18D03B681B7B9C4214D8631EFA682F
:1017C000D35C08931B0218433861002015E0A24B3C
:1017D000A24A8E219F4801F079F9A14B9F4A92219C
:1017E0009C4801F073F9994B9E4A4121994801F0B8
:1017F0006DF900239A46984600207B68BFF35F8FFF
:1018000000221A6086F310884346002B32D100284C
:1018100000D10CE100F0FCFB02000B1EA7DB002056
:101820000021069007917868EFF3108672B6016880
:101830000029FCD0BFF35F8F396888464C7B002CB1
:10184000D7D09AD0097B8C4297D8874965182D014B
:10185000B9688C46654428686968801A99410029EE
:1018600091DD2A686B68099800F03AFC00239A46DB
:101870009846C2E7089B1B0223439946514618002D
:10188000C04705000E007A68EFF3108B72B613683C
:1018900059424B41D9B2002BF9D1BFF35F8F002ED3
:1018A0001EDB002E46DD3B69002B47D04B456DD13A
:1018B00000F0AEFB02000B1E6EDB52197341002BD1
:1018C00070DB002B72DB0021049101310391029443
:1018D00051460191414600913800FFF77FFE4CE0F0
:1018E0003B69002BDDD04B4514D1069A079B521B58
:1018F000B341002B14DB002B16DB002104910131D6
:101900000391029451460191414600913800FFF73E
:1019100065FE32E0554B514AA1214E4801F0D6F800
:1019200001225242524BE6E7454B464A3F21464888
:1019300001F0CCF8002E01D1002DB4D13B68002C71
:1019400050D05A7B944237D1012100294AD1DA7B09
:10195000002A4DD19A7B002A03D1DA7B002A5AD182
:101960009C73DC73002C5CD03B681B7B9C4258D87A
:10197000FA68013C135D0133135500233B617A681B
:10198000BFF35F8F13608BF3108843E7374B334A05
:10199000A421304801F09AF8294B2A4A3F212A48CD
:1019A00001F094F801225242314B8AE7244B254A38
:1019B0003F21254801F08AF8002C0DD01A7B944273
:1019C0000AD862001219033A186884466244927871
:1019D000002ABAD00121B8E7264B274A68212748B8
:1019E00001F074F8264B274AF621244801F06EF8DE
:1019F000002A0AD0197B8A4207D851008A18033A74
:101A000019688C4662445470A4E71A4B1A4A68213C
:101A10001A4801F05BF81C4B1A4AFB21174801F0E9
:101A200055F80A4B0F4A41210A4801F04FF80BB014
:101A3000F0BCBB46B246A946A046F0BD4CCA002049
:101A400060230110C42B01107C2301109829011080
:101A5000F82B011060290110782A0110DC2B0110ED
:101A6000902A01101C2C0110FFFFFF0F9C2A01106F
:101A7000FFFFFF7FBC290110642C0110D829011041
:101A8000D82A0110302C0110FC2A011010B50C4B83
:101A90005B68002B04D00A210A48FFF793FC10BDB5
:101AA000074C2300084A1021206800F057FC03204F
:101AB00000F0A2FA03212000FFF7A8FCEBE7C046E4
:101AC0005C1800203CDC00207D14001010B5064B93
:101AD0005B68002B01D0044810BD044B044A5E2112
:101AE000044800F0F3FFC0465C180020102B0110E2
:101AF000042C011060290110F0B5DE4657464E4611
:101B00004546E0B58BB0804616001F00149B9A46F0
:101B1000159B994616AB1B789B461F2302AA944639
:101B2000634400221A702BE0002809D04246126854
:101B3000127B904204D8421E4146C9688A5C41E04B
:101B4000404B414A4121414800F0C0FF07984CE01A
:101B5000361BAF41002F07DB002F11DA3C4B3D4A0B
:101B60003F213D4800F0B2FF012676423B4FF3E7AC
:101B7000374B384A3F21384800F0A8FF002F4FDB91
:101B800043465A68EFF3108472B6136859424B41CA
:101B9000D9B20791002BF8D1BFF35F8F1F3302AA90
:101BA0009446634404930023039302934B460193AA
:101BB0005346009332003B004046FFF70FFD031EE3
:101BC000B2D1020041464968BFF35F8F00250D6026
:101BD00084F31088002B29D01F2302A98C4663446C
:101BE0001B78002BB2D112021043002B20D05B4691
:101BF000002B1DD04946D04704000D0003000B43C5
:101C00001DD00029A4DB00F003FA06000F1EAFDB95
:101C100036196F41002FB1DA012676420F4FADE73A
:101C20000B4B0C4A3F210C4800F050FF0120404272
:101C30000BB0F0BCBB46B246A946A046F0BD079823
:101C4000F6E7C046982901101C2C011060290110EC
:101C500060230110C42B01107C230110FFFFFF7FC4
:101C6000F8B504004268EFF3108572B61368584265
:101C70004341D8B2002BF9D1BFF35F8FCBB22268BA
:101C8000567BB3421BD10120002848D020698842EE
:101C90002BD0090AC9B2002B2ED02068007B8342CA
:101CA0002AD8581EE668305C88422BD00020636832
:101CB000BFF35F8F00221A6085F31088F8BD002BF8
:101CC0000DD0167BB3420AD85E00F618033E1768A3
:101CD000BC466644B678002ED6D00120D4E7134B1C
:101CE000134A6821134800F0F1FE9521124B134A64
:101CF0004900134800F0EAFE124B134A41211048F4
:101D000000F0E4FE1900100000F022FC0028CED103
:101D100032210E4B094AFF31094800F0D7FE2369F2
:101D20008B42C4D100232361C1E7C046BC29011006
:101D3000642C0110D8290110342B0110AC2B011098
:101D400060290110982901101C2C0110582B01103A
:101D5000407D7047F0B587B006000F00EFF30583B4
:101D6000002B1FD106246442E517A4197D418D4242
:101D700002D803D1844201D900240025002D14DBB0
:101D80000494059500F044F902000B1E13DBA41A1D
:101D90009D41002D17DC14D03000390000F044F9CB
:101DA00007B0F0BD234800F02BFF234B234A3F210F
:101DB000234800F08BFE204B204A3F21204800F0B2
:101DC00085FE002CE8D0FFF781FE002302930193EB
:101DD0001C4B0093049A059BFFF78EFE002818DA2F
:101DE000DAE7002300E00023002BD5D1164B1A6858
:101DF000EFF3108172B61368002BFCD0BFF35F8F36
:101E0000114B1B68BFF35F8F00221A6081F31088AB
:101E100020BF0499059A0D4B5B6A9A42E3D80B48A0
:101E2000806A884203D29A42DBD00123DCE7012397
:101E3000DAE7C0465C2B011060230110C42B0110AF
:101E40007C2301104D1400103CDC002000400540B4
:101E500070B504000D0000F0DBF802000B1E0ADB79
:101E6000200029008018594100290ADB00290CDBD9
:101E7000FFF770FF70BD084B084A3F21084800F08B
:101E800025FE012040420749F0E7034B034A3F216A
:101E9000034800F01BFEC04660230110C42B011054
:101EA0007C230110FFFFFF7F10B5FA229200002370
:101EB000002102F073FBFFF7CBFF10BD70B584B0BB
:101EC00005000C00EFF30583002B1ED1FFF7FEFD8C
:101ED000002302930193224B00932A002300FFF773
:101EE0000BFE061E23DD20BFFFF7F0FD3100FFF7DC
:101EF000B7FE1C4B5B6A9C422DD81A4A926AAA42D2
:101F00002CD29C4225D0012026E0164B5B6A9942D8
:101F100009D8144A926A824207D2994201D001201C
:101F20001AE0002018E0002016E0012014E00D4B1C
:101F30005B6A9C4209D80B4A926AAA4207D29C4229
:101F400001D0012008E0002006E0002004E001208C
:101F500002E0002000E0002004B070BD0120FBE79B
:101F60004D1400100040054070B5EFF305801038A7
:101F7000EFF3108C72B61A4B1B68002BFBD0BFF32B
:101F80005F8F01221300834016494B6316490B6093
:101F9000164909780C00C440224214D0114A546AF0
:101FA0008200134D5259944206D38200114C1259AB
:101FB00099430E4B197007E00A4A031D9B0099587C
:101FC0009950002200E00022BFF35F8F044B0021F4
:101FD00019608CF31088002A00D0904770BDC0466D
:101FE000280100D0004005403C700540A7DC0020DF
:101FF00040DC0020101F002010B50100024A0348F9
:10200000FEF7EEFD10BDC046902C011099DC0020BB
:10201000044B5B6A034A906A1900536A9942F9D1EA
:102020007047C04600400540084B5B6A01E0074B23
:102030005B6A8B42FBD301E0044B5B6A8B4203D1AA
:10204000024B9B6A8342F7D37047C046004005406D
:1020500070B504000D00EFF3108672B61B4B1B68C1
:10206000002BFBD0BFF35F8F002D1CD02000FEF7AC
:10207000BFFE174B83420BD019002000FEF7C0FEB5
:1020800001212000FEF7A4FE0123A340114A1360A2
:10209000A400114BE550BFF35F8F0C4B00221A6078
:1020A00086F3108870BDA2000B4B0021D150012295
:1020B000A2400A490B7893430B7005492000FEF7B4
:1020C000E3FF00212000FEF783FEE4E7280100D0B3
:1020D000691F001038600540101F0020A7DC002099
:1020E000F0B5DE4600B584B00400150001921E0074
:1020F0000293FFF78DFF03958E4202D84ED18542A1
:102100004CD9EFF3108B72B6274B1B68002BFBD01A
:10211000BFF35F8F254A17780125A540EBB23B43FB
:102120001370234B5D63221D92000199D150A200D0
:102130002049029850501B6A2B4212D11C4B1B6C39
:102140002B4208D00020BFF35F8F174B00221A608C
:102150008BF3108823E0184B184AC521184800F06B
:10216000B5FCFFF755FF8E4214D802D1039B834282
:1021700010D80E4B1B78BB420ED00D4B1D625D6319
:102180001F2004400123A3400E4A1360074B1F7019
:102190001E38D8E70020D6E70120D4E7012004B09C
:1021A00080BCBB46F0BDC046280100D0A7DC0020A3
:1021B0000040054040DC0020B42C0110182D011017
:1021C000D82C011080E200E0EFF3108C72B60B4BBC
:1021D0001B68002BFBD0BFF35F8F01238340084AAD
:1021E000136208490A789A430A70BFF35F8F034B62
:1021F00000221A608CF310887047C046280100D076
:1022000000400540A7DC002010B500291ED0037B4C
:1022100099421BD84B005B18033B0468A4466344F7
:10222000002919D0002A1DD0914221D0002A25D0A2
:10223000047BA24222D8046850008018033820187A
:102240008170197800291FD11A7010BD104B114AE6
:102250006821114800F03AFC104B114A6F310E48CA
:1022600000F034FC0F4B0E4A70210B4800F02EFC9E
:102270000D4B0B4A7121084800F028FC044B054A1D
:102280006821054800F022FC41701A70DDE7C04665
:10229000BC290110202E0110D8290110202A01107C
:1022A0000C2E01102C2A0110382A011070B50600DE
:1022B0000D001400002914D0002A14D0806873681F
:1022C0009847002806D0220029003000FFF79CFF25
:1022D000280007E02A0021003000FFF795FF2000CA
:1022E00000E0100070BD0800FCE7000010B50023FE
:1022F000437301338373037BC3730123027B9A42CD
:1023000014D9002B0CD0027B934209D85A00D21862
:10231000033A01688C4662440133DBB25370EDE747
:102320000B4B0C4A68210C4800F0D0FB002A09D066
:10233000924207D8016853009A18033A8A1800237A
:10234000537010BD024B034A6821034800F0BEFBE6
:10235000BC290110202E0110D829011010B50173DD
:1023600042608360FFF7C2FF10BD000070B504003B
:10237000081E00D170BD002934D0237B994231D88A
:102380004B005B18033B2268944663445A78002A4A
:10239000F0D02DD0237B9A422AD853009B18033BC0
:1023A00021688C4663445D7800215970002825D04F
:1023B000237B984222D843001B18033B21688C469C
:1023C00063440021597001002000FFF76FFF0600F1
:1023D00029002000FFF7CAFF020031002000FFF7AC
:1023E00065FFC7E7084B094A6821094800F06EFB02
:1023F000054B064A6821064800F068FB024B034A79
:102400006821034800F062FBBC290110202E011056
:10241000D829011070B505000C00160000292FD036
:1024200034D0037B994231D84B005B18033B0268E0
:10243000944663445A78002A2ED19A78002A31D1E2
:102440001978FFF793FF0300002E0AD0EA7B002AD9
:102450002ED1AA7B002A03D1EA7B002A3BD1AC73A0
:10246000EC73002B3DD1002C4FD02B7B9C424CD8E1
:102470002B6861000C19033C1C190023637070BDAC
:10248000254B264A3821264800F020FB254B264ABA
:102490006821264800F01AFB254B204A3A212048A3
:1024A00000F014FB234B1D4A3B211D4800F00EFB9E
:1024B000002A0AD0297B8A4207D851008A18033A99
:1024C00029688C4662445470C3E7164B164A68214B
:1024D000164800F0FBFA184B104A4221104800F051
:1024E000F5FA002B0BD02A7B934208D843001B1827
:1024F000033B2A689446634400229A70B3E7094B71
:10250000094A6821094800F0E1FA064B064A6821A9
:10251000064800F0DBFAC046342D0110F82D0110FA
:102520003C2D0110BC290110202E0110D8290110CA
:10253000742D01109C2D0110FC2A011070B50400AF
:102540000A00457B2900FFF765FF6073280070BD16
:1025500070B50400002967D0437B8B420ED0002960
:1025600011D0037B99420ED84B005B18033B0268E5
:10257000D0188378002B0CD1002056E00121FFF702
:10258000DDFF012051E0294B294A6821294800F04C
:102590009DFA002B20D0227B93421DD85A00D318DD
:1025A000033B2268D2182568EB5C8B421AD0002BC3
:1025B0001BD0227B934218D85A00D318033B2268C1
:1025C000D21853788B4216D0002BF0D11A4B1B4AED
:1025D0006B211B4800F07AFA144B154A6821154804
:1025E00000F074FA4378137007E0104B104A68212A
:1025F000104800F06BFA43785370002383704370E7
:1026000001222000FFF706FF0200617B814205D016
:102610002000FFF74BFE6073012006E0094B074ADC
:102620007121074800F052FA002070BDBC2901104A
:10263000202E0110D82901108C270110E02D011047
:102640003C2D0110C02D011070B504000D000620B6
:1026500000F07EF9C000290001F00AFCC60908D08C
:102660000E4B9E4217D87F23184001303500460894
:1026700000E001256562A6622C34802080010443BD
:1026800000232360062000F063F98000A901891966
:1026900001F0EEFB70BD0026014DEBE7FEFF0000F0
:1026A000FFFF0000002909D00A22064B9C46604427
:1026B000434258414000044BC252704780225200AE
:1026C000F3E7C0460080FCBF74DC002070B5050055
:1026D0000C00062000F03CF9002829D0164B9D4242
:1026E00027D08022D203154B1A60154B1A60154B68
:1026F0009B6811009943FAD100212800FFF7D2FF0F
:1027000021002800FFF7A0FF2C002C34E96A60228A
:102710004A406E21114080225201224311600A4B2F
:102720002B6380239B01234310221A600323AB6495
:1027300070BD80221204D6E70080034000E0004014
:1027400000F0004000C0004001030000F8B5DE4684
:1027500057464E464546E0B505000F0092460A9A98
:1027600093424ED31A0E91461E020A9A002330005D
:10277000494601F0BBFB80466C006419A4002F4B56
:102780009C4664446368834200D260602B1FDBB2C6
:102790009B46012B3BD9C0239B012343802212017E
:1027A0001A60AB00264A9958002905D0506901F0FB
:1027B0005FFB01300138FDD153465A0123685A406E
:1027C000E0231A4080235B0123431A605A46012A02
:1027D00028D980239B012343802212011A6043469B
:1027E0006360424600233000494601F07FFBAD00A4
:1027F000134B58510120F0BCBB46B246A946A04637
:10280000F8BD104B104A2D21104800F05FF9012F40
:10281000C1D1C0239B01234303221A60A368DB07B5
:10282000FCD5C9E72168794003220A401A60A268F2
:102830000123BB401342FAD0CBE7C04600800040E2
:10284000402100202C2E0110842E0110402E01105A
:1028500030B583B00C2000F017F9FEF7A1F900287D
:102860000DD0002304E099002D4A2E4888500133F2
:10287000092BF8D92A4B2C4A5A6203B030BD2B4B96
:1028800000229A6700F008F9294B01221A60274BB1
:102890005B6C012BFBD1274B03221A60234B9B6BF4
:1028A000012BFBD1013300930433234A0121234838
:1028B00000F054F805230093214A0121214800F03B
:1028C0004DF8214B0093002202210420FFF73EFF28
:1028D0001E4D00952B00002201210520FFF736FF39
:1028E000104C00942300002200210720FFF72EFF48
:1028F00000942300002200210820FFF727FF0A4B45
:1029000000932300002200210920FFF71FFF0095FC
:102910002B00002200210620FFF718FFADE7C0467C
:1029200040210020006CDC021BB70000008000404A
:102930003CB0004030B00040002F68590080024099
:10294000008C864700C00240001BB7004059730747
:102950008000014BC058704740210020F0B5C646AA
:1029600000B504000D00170098460C2001F080FA15
:102970000600394BFA18394B9A4241D843011B1AC9
:102980009901C91AC90009188901380001F070FAC3
:102990000200103A98235B009A4237D84346013B25
:1029A000062B39D8069B013B062B35D83F09B74289
:1029B00038D343461E04069B1A0316432368002B94
:1029C00036DB274B9C4244D080225201254B1A60B3
:1029D000254B1A60254B9B6811009943FAD125605D
:1029E000A060231DC02292011A4321231360236893
:1029F000002BFCDAE6600823136080BCB846F0BD0B
:102A00001B4B1C4A11211C4800F060F81B4B194A53
:102A10001921194800F05AF8194B164A1C2116487A
:102A200000F054F8174B134A2321134800F04EF8D6
:102A300022683F231340AB42C3D1A3681B051B0D83
:102A40008342BED1E368EE22D2021340B342B8D132
:102A5000D3E780229201B9E780E84BD380F8A9320E
:102A600000C0024000E0004000F0004000C0004014
:102A7000942E0110B42F0110F42E0110302F0110EC
:102A80004C2F0110982F011080239B000343014A13
:102A9000D362704700800540064BAA2212011A60DB
:102AA0002F22DA60044B054A1A60024B5B68002B48
:102AB000FBDA7047004002400060024000B0FA00BC
:102AC00000BEFDE710B5FFF7FBFF000010B582B0B8
:102AD0000C001900002A0CD0084B002A0BD00192E0
:102AE000009323000200064801F022FF0120FFF7B7
:102AF000E7FF044BF1E7034AF1E7C046C02F01109E
:102B0000D02F0110D421011070B52B4B2B4A1A6025
:102B10002B4B2C4A1A602C4B9A682A4B9343FAD1C0
:102B20002A4C01E008CC9847294B9C42FAD3FFF786
:102B30008FFE234B274A1A60234B9B68DB43DB0144
:102B4000FAD1254B40229A675A671A67DA66234CF6
:102B500009E0234B234A86212348FFF7B7FF2000D3
:102B6000FEF738FC0834214B9C4209D22368002B25
:102B7000F5D0012BEDD12000FEF739FC0834F2E747
:102B80001B4CA1681B4DC022280001F079FDA560F7
:102B9000EFF30583002B00D000BEFEF783F8FEF7AD
:102BA000D5FBFEF773FF144C01E008CC9847134B9C
:102BB0009C42FAD370BDC04600E00040BFCDFBFE92
:102BC00000F00040FE7F3C0000C00040601D00207F
:102BD000701D0020FFFFFF0100F00140581D002084
:102BE000003001108030011020300110601D0020E5
:102BF00000ED00E000000020701D0020781D002086
:102C00000FB400B583B0084801F062FE049B002BAE
:102C100007D005A90191180001F06AFE034801F0F0
:102C200057FE0120FFF74CFF6030011048DA041016
:102C300010B50148FFF7E4FF703001109A4200D24E
:102C400088547047704710B5002802D00B68496857
:102C5000984710BD0100002007E083001B185B00AF
:102C6000501C08601078C01830380A681378303B60
:102C7000DBB2092BF1D97047F0B5DE4657464E4618
:102C80004546E0B583B093461F000C9B9A460D9CC9
:102C90000E9B99460F9B9B0703D0B8460F0006007A
:102CA00022E00192A34688464E46B9460700B44248
:102CB00007D2551C4B4641462020B84701342A0014
:102CC000F5E73D004F465C46019B9B46B1464646B4
:102CD000B84637002E0007E0013C551C5346185DEE
:102CE00043463900B0472A00002CF5D135003E009C
:102CF00047460F9B9B0707D4100003B0F0BCBB46B0
:102D0000B246A946A046F0BDB0464E46B9462F0091
:102D10005D46531BB342EFD2541C4B464146202024
:102D2000B8472200F5E7F0B5CE46474680B585B0F6
:102D3000944698460C9D0D9C0EAB1B789946109AB4
:102D4000119B129EB7071CD4002B0CD0F7070AD595
:102D50004F46002F02D10C37374204D0013B02E02E
:102D600030272F550134944201D21F2CF8D9F70790
:102D700007D59C4205D21F2C03D830272F5501348C
:102D8000F5E7F70615D5770505D4002C03D0944256
:102D900024D09C4222D00F9A102A2BD00F9A102AAE
:102DA00030D00F9A022A35D01F2C02D830222A5553
:102DB00001341F2C05D84A46002A31D02D222A552D
:102DC0000134039602930194009543466246FFF74F
:102DD00053FF05B0C0BCB946B046F0BD621E012C21
:102DE00006D00F9F102F01D01400D4E7023CD2E789
:102DF0001400D0E7B206D1D41F2CCFD878222A55A0
:102E00000134D1E7B206CCD51F2CCAD858222A5596
:102E10000134C9E71F2CC7D860322A550134C3E7F3
:102E2000720703D52B222A550134CAE73207C8D5C9
:102E300020222A550134C4E7F0B5DE4657464E46F7
:102E40004546E0B593B081468A46089209931CAB8B
:102E500010CB1B789B461E9D219B9846002C03D1CE
:102E6000102342469A4390468023DB0046461E408C
:102E700042461A4212D0002C22D000260EE03033F7
:102E8000D9B2771C0AAB99552900200000F0F0FF59
:102E9000AC4216D31F2F14D83E0004002900200096
:102EA00000F0E6FFCBB2092BE9D94246920605D5E0
:102EB0004121C918C9B20A39C9B2E2E76121F8E76C
:102EC000270043460693209B05931F9B049303957D
:102ED0005B46029301970AAB0093099B089A5146FF
:102EE0004846FFF720FF13B0F0BCBB46B246A946E8
:102EF000A046F0BDF0B5DE4657464E464546E0B525
:102F000095B0089009910A920B931E9E1F9C20ABCE
:102F10001B789B46229B9946239D269B9A4633000D
:102F2000234303D1103352469A4392468023DB0059
:102F300057461F4052461A4219D0330023432DD022
:102F4000002714E03033DAB27B1C98460CABDA551C
:102F50004A462B003000210000F0C8FFA5421FD8D0
:102F600019D043461F2B1BD8474606000C004A4683
:102F70002B003000210000F0B9FFD3B2092BE1D9BA
:102F80005246920605D54122D218D2B20A3AD2B29E
:102F9000DAE76122F8E7B145E3D901E0002398467A
:102FA00053460693259B0593249B04934B4603931A
:102FB0005B460293434601930CAB00930B9B0A9A2A
:102FC00009990898FFF7AFFE15B0F0BCBB46B246B2
:102FD000A946A046F0BD0000F0B5DE4657464E4675
:102FE0004546E0B591B083468A460C9298461A9CB5
:102FF00008941B9D099522002B002000290001F058
:10300000F0F9002800D0E5E001225242D74B200021
:10301000290001F0E1F9002800D0DBE00122524252
:10302000D34B2000290001F0C1F9002800D0D1E0E5
:1030300000220023089E3000099D290001F0B6F906
:10304000002800D0DDE008980999069007918023B8
:10305000DB001E9A1A400D921E9A1A4201D10623D5
:103060001C930698079904000D000A00060002430D
:1030700000D1D1E0080D4005400DBE4CA44660448F
:103080000A03120BBC4B13431F0001F0BDF9BB4AEE
:10309000BB4B01F04CF9BB4ABB4B01F029F90400D2
:1030A0000D000022B94B3000390001F01CF9B84A7C
:1030B000B84B01F03CF902000B002000290001F0A0
:1030C00017F901F0B9F9814601F09EF904000D00ED
:1030D000B14AB24B01F02BF90022B14B01F008F9D3
:1030E00001F0AAF90600AF4AAF4B2000290001F019
:1030F0001EF904000D00300001F086F9AB4AAC4B1C
:1031000001F015F902000B002000290001F0EBF896
:1031100004000D0002000B0001F009F90A900B9168
:10312000A44BF31800261F0522002B0020002900C5
:1031300001F0DEF80E900F9122002B00002080217C
:10314000C90501F0D0F804000D0000229A4B0A983E
:103150000B9901F0D2F80022984B01F0C9F8020057
:103160000B000A980B9901F0C8F80022944B01F06B
:10317000BFF802000B000A980B9901F0BEF802009C
:103180000B002000290001F0B3F802000B000E989C
:103190000F9901F0B2F80022774B01F0A9F8320044
:1031A0003B0001F0C4F806000F0004000D00069A71
:1031B000079B01F011F9002830D001235B429C46A7
:1031C000E14400227D4B3000390001F096F8040004
:1031D0000D0023E01E9B04931D9B03931C9B0293F5
:1031E000089A099B0092019343460C9A514658460F
:1031F00000F0FCF811B0F0BCBB46B246A946A046B0
:10320000F0BD0023002406930794069680231B0636
:103210009C46654407951AE7002399464B4663335D
:10322000C62B1ED804261E9B1B0526D52B00234328
:103230000FD0644A644B0698079901F0C5F800283E
:1032400079D00022614B0698079901F0AFF8002869
:1032500071D01C9B4B4506DD4A46981A431E1C93B1
:1032600003E00526DFE700231C938023DB001E9A82
:103270001A431E920026002399461D9B9E4264D24B
:103280009F1B02231E9A1A400A921E9A134202D0D2
:10329000002E00D000274B46002B07D022002B0029
:1032A0000698079901F029F806900791002200235B
:1032B0000898099901F07AF8002848D1444B1E9AE1
:1032C0001340049303971C9B0293069B079C009357
:1032D000019443460C9A5146584600F087F8002E58
:1032E00000D187E71E9B9B063DD54525441C4346E0
:1032F000020051462800D8474B46DA179B18534026
:1033000005220592013E0496002203920A3202929F
:103310004A46D00F0190009343462200514658463A
:10332000FFF78AFD0A9B002B00D163E702005F468E
:103330000C9E1D9D54E01C9B002B9ED00D9B002BD2
:103340009BD01C9B013B1C9397E7002799E7069CA9
:10335000079D2200290080200006844661440B005E
:1033600006920793AAE76525C0E7C046FFFFEF7FF7
:10337000FFFFEFFF01FCFFFF0000F03FFB799F50D4
:103380001344D33FB3C8608B288AC63F0000F83F80
:1033900061436F63A787D23F71A379094F930A40B6
:1033A0000000E03F1655B5BBB16B0240EF39FAFEA5
:1033B000422EE63FFF03000000002C4000002440A6
:1033C000000018402D431CEBE2361A3F80842E414A
:1033D000FFF7FFFF541C434651462020B847220008
:1033E000931BAB42F6D3100004E7C046F0B5DE46AF
:1033F00057464E464546E0B595B006900791934630
:103400009946209F1E9A1F9B1000190000F0E9FFAB
:10341000002831D101225242BF4B1E981F9900F063
:10342000C5FF002837D101225242BC4B1E981F997C
:1034300000F0D2FF00283DD10022B94B1E981F9901
:1034400000F0CAFF002850D10022B64B1E981F99E9
:1034500000F0ACFF002848D1002200231E981F99DD
:1034600000F0A4FF002850D100239846229B5B0562
:1034700000D4B6E0002458E0229B0393219B0293E2
:1034800003230193A84B00934B465A46079906988D
:10349000FFF7F2FB0EE1229B0393219B029304238F
:1034A0000193A24B00934B465A4607990698FFF7A3
:1034B000E3FBFFE00423229A1A4022990B4210D02A
:1034C0009B4B002A0FD0042222990391219902914B
:1034D000019200934B465A4607990698FFF7CCFB9A
:1034E000E8E0944BEDE70322EEE7229B0493219B57
:1034F000039302971E9B1F9C009301944B465A46D0
:1035000007990698FFF768FDD4E01E9A1F9B0020DC
:10351000002100F0E8FE1E901F9101239846A5E7C8
:103520000CAB30221A55013F01341F2C01D8092F52
:10353000F6D81E981F9900F07FFF050000F064FF89
:1035400002000B001E981F9900F0CDFEFA007A4B86
:103550009B181A685B680A920B9300F0E8FE0890CB
:10356000099100F08DFF060000F04AFF02000B00F9
:103570000898099900F0B7FE0890099100226F4B56
:1035800000F02AFF00282ED00136300000F038FF6E
:1035900002000B000A980B9900F00EFF002801D0E2
:1035A00001350026002F2CD1280000F02DFF02004D
:1035B0000B001E981F9900F096FE06000F000022D7
:1035C0005E4B00F0F3FE002846D100225B4B30003A
:1035D000390000F001FF00283ED1EB073CD5013552
:1035E0003AE0062746E70022544B0898099900F074
:1035F000DDFE0028D6D1002E01D0F307D2D501364A
:10360000D0E7AA461F2C11D8013F0A21300000F054
:103610002FFC651C30310CAB19550A21300000F02D
:1036200027FC092E0ED906002C00EBE755461F2C6F
:103630000CD87B1E002F09D00CAA302111551F0079
:103640000134F4E72B0055461C00F0E71F2C03D88B
:103650000CAB2E221A5501341F2C10D80A21280039
:1036600000F0DEFB661C30310CAB19550A21280036
:1036700000F0D6FB051E01D03400EDE73400032333
:10368000229A1340012B1CD01F2C06D84346002B36
:1036900032D00CAB2D221A550134229B0393219B6F
:1036A000029301940CAB00934B465A460799069837
:1036B000FFF7E2FA15B0F0BCBB46B246A946A046F9
:1036C000F0BD219B002B13D04346002B02D10C33BD
:1036D00013420FD0219B013B2193190003E00CAB57
:1036E00030221A5501348C42CED21F2CF7D9CBE7A9
:1036F0002199F8E72199F6E7229B5B0704D50CABEB
:103700002B221A550134C8E7229B1B07C5D50CABE9
:1037100020221A550134C0E7FFFFEFFFFFFFEF7FC4
:1037200065CDCD4165CDCDC19C300110A0300110DB
:103730009430011090300110883201100000E03FF9
:10374000F0B5DE4657464E464546E0B593B0824654
:103750008B4690461193002900D1EBE20027554695
:10376000119B1878002800D1E7E2252809D07C1C9D
:1037700043463A005946A847119B0133119327004D
:10378000EEE7013311930024119A11780B00203BCE
:10379000D8B2102803D88300D048C3589F460B00E6
:1037A000303BDBB2092B2CD92A292FD000230A93D6
:1037B000119B1A782E2A39D000239A46119A137831
:1037C000683BD9B2122976D88B00C549CB589F46A1
:1037D00001231C4301321192D6E702231C4301321C
:1037E0001192D1E704231C4301321192CCE7082344
:1037F0001C4301321192C7E710231C43013211927E
:10380000C2E711A8FFF726FA0A90D1E71C9B1A1D00
:103810001C921868002804DB0A90119B0133119355
:10382000C6E702231C4343420A93F6E78022D200F4
:1038300014435A1C11925A781300303BDBB2092B07
:1038400004D92A2A07D000239A46B7E711A8FFF720
:1038500001FA8246B2E71C9B1A1D1C9218680028C8
:1038600004DB8246119B01331193A7E70020F8E7A0
:1038700080235B002343511C119152786C2A01D0A4
:103880001C0018E0C0239B001C430131119112E081
:1038900080232343511C11915278682A01D01C00C7
:1038A00009E0C0231C430131119104E080235B0037
:1038B0001C4301321192119B18780300253BDAB2A8
:1038C000532A00D92CE29300864AD3589F4680237E
:1038D0009B001C4301321192EDE780235B001C43E7
:1038E00001321192E7E7782809D0582838D06F289C
:1038F00038D0622838D010239C430A2600E01026D6
:10390000582833D0692803D0642801D00C2294436E
:10391000630501D50122944369282AD0642828D060
:10392000A30500D59FE0E30500D5B8E0630600D409
:10393000CAE01C9A111D1C911168FF220A400594CF
:103940000A9B04935346039302960023019300922B
:1039500043463A0059462800FFF76EFA070027E071
:103960001026CDE70826CBE70226C9E7202214431C
:10397000C8E7A30520D4E30550D4630666D51C9A96
:10398000111D1C911168FF220A40D317D11859400C
:1039900005940A9B0493534603930296D20F019217
:1039A000009143463A0059462800FFF745FA0700C0
:1039B000119B01331193D3E61C9BDA1D07218A4327
:1039C000110008311C91116853689C46DB170C9359
:1039D0000D930C9A0D9B100048400E906246534088
:1039E0000F930E980F990C9A0D9B801A99410E9087
:1039F0000F9108940A9B079353460693049600235D
:103A000005936346DA0F02920090019143463A0013
:103A100059462800FFF76EFA0700C9E71C9A111DE6
:103A20001C911268D317D118594005940A9B04932E
:103A3000534603930296D20F0192009143463A00F7
:103A400059462800FFF7F8F90700B1E7230605D526
:103A50001C9A111D1C910023D25E96E71C9A111D21
:103A60001C91126891E71C9BDA1D07218A43110003
:103A700008311C9108940A9B0793534606930496B9
:103A800000230593029313685468009301944346FE
:103A90003A0059462800FFF72DFA070088E71C9ADC
:103AA000111D1C9105940A9B04935346039302969F
:103AB000002301931368009343463A0059462800B7
:103AC000FFF7BAF9070073E723060DD51C9A111DFD
:103AD0001C9112681204120C31E7C046A830011084
:103AE000EC300110383101101C9A111D1C91126824
:103AF00025E746281AD01C9B0733072293431A0058
:103B000008321C9204940A9A0392524602925C680C
:103B10001B680093019443463A0059462800FFF77A
:103B200065FC0700119B0133119319E620231C4308
:103B3000E1E7672801D0472802D180231B011C43FD
:103B4000452801D0472801D120231C431C9B073363
:103B5000072293431A0008321C9204940A9A039293
:103B6000524602925C681B680093019443463A00F7
:103B700059462800FFF730FA0700119B01331193D3
:103B8000EEE502231A002240924623421FD0012470
:103B90001C9B1A1D1C927A1C9146187843463A00C9
:103BA0005946A8475346002B16D1119B0133119358
:103BB0004F46D5E5561C434659462020B8472300BA
:103BC00032005C1C9D42F5D83D001700E0E7012360
:103BD0003A002F000A9DF4E74A46A9460A9D06E0EE
:103BE000571C434659462020C84734003A00661CFB
:103BF000A542F5D84D469146D7E71C9B1A1D1C924D
:103C00001B6899465346002B00D1013B4E4601E00C
:103C1000013613003278002A02D05A1E002BF7D149
:103C20004B46F21A10928023DB0026001E401C42F5
:103C300003D0524501D95346109302231A00224063
:103C40000B92234205D03A0037004C46A946554610
:103C500020E03A00109B5F46B3462E0006E0551C5C
:103C6000434639002020B04723002A005C1C0A99F3
:103C70009942F4D835005E46BB46109437004C4656
:103C8000A946554606E01D000134561C43465946D8
:103C9000C84732002078002804D0002FF4D06B1ED3
:103CA000002DF0D117004D460B9B002B03D1119B2B
:103CB0000133119354E50A9F109B06E0561C4346BE
:103CC00059462020A847230032005C1C9F42F5D8AB
:103CD0001700ECE721231C431C9B1A1D1C921B6838
:103CE00000930594082304935346039310230293EF
:103CF0000023019343463A0059462800FFF79CF8F9
:103D00000700119B013311932AE57C1C43463A00BE
:103D100059462520A847119B0133119327001FE521
:103D20007C1C43463A005946A847119B0133119326
:103D3000270015E50A4B9A4610E5AA46474502D3E7
:103D400043465A1E00E03A00434659460020D047F9
:103D5000380013B0F0BCBB46B246A946A046F0BD41
:103D6000452C00100EB410B585B0010007AC08CC8E
:103D700003940122009452420348FFF7E1FC05B08E
:103D800010BC08BC03B018473D2C001000B585B02E
:103D9000029003910121009313004A4202A90248B4
:103DA000FFF7CEFC05B000BD472C001001480421F0
:103DB000014B184790180020E93D0010014B9B680B
:103DC000184700009018002010B5010018231B8828
:103DD00014221088984710BD10B5010018231B88C5
:103DE00016221088984710BDF0B5C64600B50700EA
:103DF0000E0000250123984600E00135B5420AD2A5
:103E0000AC003C192068FFF7DFFF20600028F4D1E8
:103E100000239846F1E7404680BCB846F0BD00005C
:103E2000124A936F9B0815D29066D166002905D07F
:103E3000FFE7FFE7FFE7516F106F704704B5802180
:103E40000906C2175140002800D0C8430EF064F99B
:103E5000002104BDF0B5146E556E576F166FFFF755
:103E6000E3FF1466556657671667F0BD000000D083
:103E7000114A936F9B0813D210665166002905D032
:103E8000FFE7FFE7FFE7516F106F704704B50028A9
:103E900001D00020C0430EF03FF9002104BDC04610
:103EA000F0B5146E556E576F166FFFF7E5FF146689
:103EB000556657671667F0BD000000D094464A4A21
:103EC000926F9208624601D228E0C046F0B5464E95
:103ED000346E756E776F366F00F020F89446424A64
:103EE00014665566576716676246F0BD94463E4AAB
:103EF000926F9208624601D254E0C046F0B53A4E45
:103F0000346E756E776F366F00F04CF89446364A13
:103F100014665566576716676246F0BD002B24DBB2
:103F200011D000293EDA00B5C943404200D1013129
:103F300000F038F8C943404200D10131DB4352421E
:103F400000D1013300BD002AEBD1002801D10029A6
:103F500005D00020C90FC90701D1C043410800B5F1
:103F60000EF0CAF80022002300BD00B500290ADBCC
:103F7000DB43524200D1013300F014F8C943404200
:103F800000D1013100BDC943404200D10131DB43C2
:103F9000524200D1013300F005F8DB43524200D118
:103FA000013300BD002923D1002B18D1002A0CD0E9
:103FB000BC460D4F38667A6600210023FFE7FFE715
:103FC000FFE77A6F386F67467047002801D00748CF
:103FD000010000B50EF090F80022002300BD0200A1
:103FE0000B00002000217047000000D0FFFFFFFF02
:103FF000002B00D0BFE0130C28D1002AE7D080B4FA
:10400000114F39667A66FFE7FFE730B4040C7B6F27
:10401000396F1B0423433B667A66FFE7FFE7FFE740
:10402000C04684B27B6F3D6F1B0423433B667A66B8
:10403000FFE7FFE7C04600232C042D0C7A6F386F92
:1040400000196941B0BC7047000000D0F0B594463B
:104050000025140E01D112020835140F01D11201EE
:104060000435940F01D192000235D40F01D15200D2
:104070000135D40B0134254F7C66254C3C660E0C73
:1040800093B2FFE7FFE7FFE73C6F6643360C770329
:10409000BE467343DF0B5B04C01AB941130C734374
:1040A000DB18C91ACE086643360CB64493B2734384
:1040B0001F0F1B01C01AB941130C73431F0B1B05C3
:1040C000C01AB941860D8F023E436643360C092D56
:1040D00024DB520A7243801A7703460A6643360C81
:1040E00016235B1BDE40DF40BF1964466643821B1C
:1040F0007046043506330100D940A840C01900D3EA
:104100000131A24206D20023F0BD0000000000D021
:10411000FFFFFFFF121B0130F3D3F1E709277F1BDD
:10412000FE406446A2B27243801A00D20139220CCA
:104130007243130C1204821A99410B007046043525
:1041400013370100F940A840801900D30131002B3A
:1041500002D1A2420AD2F0BD013000D30131121BBC
:10416000FAD2013BF8D1A24200D2F0BD013000D317
:104170000131121BF7E7F0B51C0C00D080E00CB445
:1041800000251C0A04D11B02160E33431202083507
:104190001C0B04D11B01160F3343120104359C0B79
:1041A00004D19B00960F334392000235DC0B02D101
:1041B00092185B4101351C00971864410134464F49
:1041C0007C66464C3C660E0CFFE7FFE7FFE7C04607
:1041D0003C6F6643360C7703BE4697B27743C01BED
:1041E00000D20139C01B00D201399FB27743C91BED
:1041F000C91B170C77437E04FF0B801BB941CE0807
:104200006643360C0C2D33DBB644120B1F053A43C4
:104210001B0B97B27743C01B00D201399FB2774383
:10422000C91B170C77433E043F0C801BB941860D18
:104230008F023E43664329277F1BFE400C3D774695
:10424000AF40BF1930BCA2B2ABB272437343801A05
:104250009941220C7243130C1204801A99410200F6
:104260000B000137001BA941F9D2781E0021F0BDD7
:104270000C277F1BFE4077467F0BAF40FF19E0E71E
:1042800000245D1C07D0144F7D663966FFE7FFE709
:10429000FFE7FFE73C6F95B29EB265436643401B64
:1042A000B141150C1E0C6543664336042F0C3E438A
:1042B0002D04401BB141994204D202000B002000A2
:1042C0000021F0BD01D19042F7D3801A9941013409
:1042D0009942F2D3F6E70000000000D0FFFFFFFF95
:1042E00048404140484018B4134B5B68019308BDF7
:1042F00018B4114B1B68019308BD94460F4A926F86
:10430000920805D2624618B40B4BDB68019308BDD6
:104310000A4AF0B5146E556E576F166F6246FFF776
:10432000F2FF064A1466556657671667F0BD18B463
:10433000014B9B68019308BD34DA0020000000D0D7
:10434000FFB550404240504059404B40594000E07A
:10435000FFB5154F4C00640D03D0BC4204D10C03D3
:1043600014D80020090D09055C00640D03D0BC427F
:1043700004D11C030AD800221B0D1B0501264B404B
:1043800009D44B4003D58B4200D18242FFBD9942F4
:10439000FCD19042FFBD0B43DB1803431343F5D020
:1043A000C9434918FFBD0000FF07000000B5FFF733
:1043B000CFFF804100BDC04600B5FFF7C9FF01D95E
:1043C000002000BD012000BD00B5FFF7B9FF01D9F5
:1043D000002000BD012000BD00B5FFF7B1FF804106
:1043E00000BD012040054A00121804D85A001218D6
:1043F00001D800207047012070470020704700005E
:104400000021002805D17047C1174840401AFAD052
:10441000C90713B5064B1B6898470CBC441CA24047
:104420001005120B0349091B09051943114310BD5F
:1044300038DB00201F04000010B54C00620D802303
:10444000D218DB00D21A5B057E2A10DD9E3A13DA01
:10445000CC170903490819435242D1406400013482
:104460001532202A05DAD0400843604310BD0020F1
:1044700010BD0846604310BDC80FC018013810BDFC
:1044800018B4024B5B6A019308BD000034DA0020C7
:1044900010B50148FEF7B4FBD832011070B51323F4
:1044A0001C78012C14D0012C14DC022C02DC1F4AD5
:1044B0001F4B9A641F48FFF787FC1F4B186070BDA5
:1044C00099001E481A4A885001331F2BF8D9EAE791
:1044D0000023FAE71A48FFF77FFC05001948FFF7A9
:1044E0007BFC023803789B007F2B19DD802229009A
:1044F0000F4800F0C5F8022CD7D1134B1A88B5230A
:104500001B029A4209D1114B1A88114B9A4204D1CD
:10451000104B1A88104B9A42C7D00020FEF770FB50
:104520000E4B0F4A32210F48FEF7D0FA69450010B2
:1045300034DA00204C33000038DB002091440010B6
:10454000534400005346000054380000D83800009F
:10455000494600009C38000059460000F032011026
:10456000983301105033011007B56046002800D180
:1045700000BE01880A0A0230DF2AFAD1C9B28208D5
:1045800004D3028840880004104300E00068024A17
:104590005050039007BD000034DA002051434343DC
:1045A000C9188C46110C83B24B4310B4040C614300
:1045B00092B280B2504362431C041B0C001910BC21
:1045C00059411304120CC018514161447047000056
:1045D00010B50148FEF714FBD421011070B5132368
:1045E0001E781848FFF7F8FB0500012E11D0012EA8
:1045F00009DDAB1E1B789B007F2B1DDD802229006F
:10460000114800F03DF81148FFF7DEFB104B186031
:1046100070BD542201000C4800F032F8002300E085
:1046200001331F2BE3D89A00074C1259002AF7D107
:104630009A0008481051F3E7074B084A42210848FE
:10464000FEF744FA534600003CDB00204C330000E8
:1046500038DB0020D1450010AC33011024340110A8
:10466000E033011001480421014B1847A018002035
:10467000E93D0010014B1B6818470000A0180020FE
:10468000014B5B6818470000A018002010B503001C
:10469000080011001B68984710BD0000F8B507001E
:1046A0000D001600437D002B02D0002400200CE0FA
:1046B00003681100280098472DE03B7D10E002219F
:1046C00015483B689847601C0134B44214DA002C4A
:1046D000F3DD2B19013B1B780D3B5A425341DBB2F2
:1046E0002A5D0A2AF0D1002BEED1A042E7DA211A86
:1046F00028183B689847E2E7B04203DA311A2818D5
:104700003B689847002E06DDAD19013D2B780D3B27
:104710005A4253413B75F8BDB034011070B50500E5
:104720000368002B16D00C4B1C6805E0290004C957
:104730002000FFF7B3FF2469002C09D02368002B69
:10474000F9D0064B1B68002BF0D0A342F3D1EDE764
:1047500000232B6070BDC0460C30002010300020BC
:1047600070B505000C000B68802B05D021684B1C30
:1047700023606418257170BD0800FFF7CFFFF5E7CF
:1047800010B5FDF745FC02000B1E0BDB0D480021A8
:1047900012184B41002B0BDB002B0DDB0A480DF0F0
:1047A000CBFC10BD094B0A4A3F210A48FEF78EF99F
:1047B00001225242084BEFE7044B054A3F210548CE
:1047C000FEF784F940420F00581D002060230110BD
:1047D000983401107C230110FFFFFF7F10B50248C1
:1047E0000DF082FC10BDC046581D0020F0B5CE462D
:1047F000474680B583B006000D0090461C00FFF7C9
:10480000BFFF81466B1C05D0002C08D0194F1A4BF6
:104810001C6807E030000DF0BFFA0500F4E7174F01
:10482000F5E72469002C17D02368002BF9D0144B2E
:104830001B68002B01D0A342F3D12A0031002000D5
:10484000B8474346002BECD06B46D91D0A230B70AA
:1048500001222000B847E4E74B46002B07D16B1E2E
:104860009D41E8B203B0C0BCB946B046F0BDFFF709
:10487000B5FFF4E78D4600100C3000209D46001077
:1048800010300020094A01E010331A001368002B91
:1048900008D08342F8D1002907D1036913600023AF
:1048A000036102E0002900D0106070470C30002046
:1048B00010B5064B1C6801E098472469002C03D012
:1048C0006368002BF8D1F8E710BDC0460C3000201B
:1048D00070B505000DF060FA04000023012201000C
:1048E0002800FFF783FFFFF7E3FF200070BD000003
:1048F00070B5A2B004000E00FFF742FF05000023D0
:1049000001933300220001A90848FFF73FFA040091
:1049100001A8FFF703FFFFF7CBFF002D02D1200016
:1049200022B070BDFFF75AFFF9E7C046614700109B
:104930000FB400B583B004A901C90191FFF7D8FFF6
:1049400003B008BC04B0184710B500F0F9F8012016
:1049500010BD0000F0B583B005000E0000240FE08C
:104960006B46D91D0D230B700020002816D19369CA
:104970009B06FCD40B78136001300131F5E701345C
:10498000B44219DA0D4B1A682F5D0D4BD3185942FA
:104990004B415B000B495B5EBB42E1D06B46D91DCE
:1049A0000F7000200028EAD193699B06FCD40B7895
:1049B000136001300131F5E703B0F0BD78DC002071
:1049C0000080FCBF74DC0020F0B583B006000F004F
:1049D000002504E06B4607331B782B702500BD4291
:1049E00015DA174B1A6893691024210019401C42EC
:1049F0000DD16C1C75196B46D81D0029EAD193693D
:104A0000DB06FCD41368037001310130F5E70D4B70
:104A10001B68002B0CD00A4B1A68502393631100BB
:104A20003431536B38221A4080235B010B431A60E8
:104A3000002D02D0280003B0F0BD033DFAE7C046C8
:104A400078DC00203821002010B5064B1B68002BB5
:104A500006D0054A126800219163044A10689847FD
:104A600010BDC0463821002078DC00203C21002009
:104A700070B504000E001C4B1B681C4A981842427B
:104A8000504114300500002C03D0194A1268002A46
:104A900006D0002C19D0164B1C60164B1E6070BD42
:104AA0001549FCF7ADF901212800FCF791F90E4BEF
:104AB0001A685023936311003431536B38221A4023
:104AC00080235B010B431A60E5E7094A1268002A5C
:104AD000E1D000229A6300212800FCF779F9064909
:104AE0002800FCF7D1FAD6E778DC00200080FCBF74
:104AF000382100203C210020494A001070B50D00EB
:104B00001C000D4B1860002A0BDA002C0EDA0A4B41
:104B100018682900FDF7DAFD01210848FFF7B2FE09
:104B200070BD02211000FBF76BFFEEE702212000B1
:104B3000FBF766FFEBE7C04678DC0020B0180020EA
:104B400010B5064B1B78064B1B78E1210123002290
:104B500049020448FFF7D2FF10BDC046B4E3041079
:104B6000B8E3041000400340F0B5D6464F46464631
:104B7000C0B505000C000520FDF7EAFE0600600840
:104B800080192100FFF774F907004300994681441A
:104B900005214846FFF76CF980463B1A9A46284B98
:104BA0009C4224D8700080192649FFF761F9441C03
:104BB0004346023BA34221D32B680022DA662968D0
:104BC0000A680423534006221A4080235B010B43EA
:104BD0001A602B685246DA612B6842461A624B46CD
:104BE0004F2B11D950214846FFF742F90DE07000D4
:104BF00080191549FFF73CF9441CD9E7134B144AB7
:104C00005F211448FDF762FF0120A0232A68D050DD
:104C10002A6811007C31D06F44402404240C802386
:104C20005B010B431C602B680122DA6639003000FF
:104C3000FFF71EF9E0BCBA46B146A846F0BDC04633
:104C40003F420F008096980040787D01F4340110B7
:104C5000503501101435011010B5114B98421CD07D
:104C60001022104B1A60104B1A60104B9B681400F6
:104C70009C43231EF9D104710268D466026866243D
:104C8000FF3414600268D36302689363883303229D
:104C90000468E250FFF768FF10BD0822E1E7C04654
:104CA000C818002000E0004000F0004000C00040B4
:104CB00010B5064B8B4202D105F0B0FD10BD044B80
:104CC000044A18210448FDF701FFC046E0180020FF
:104CD000643501100C36011084350110F8B504005C
:104CE000204B994212D101230B7205F0C1FD050042
:104CF000431C11D11C4B186859681C4B9860D96033
:104D000023685B69194920009847F8BD184B194A78
:104D10001D211948FDF7DAFEFDF77AF906000F1E8E
:104D200010DBFA229200002328000021FFF736FC56
:104D300036184F41002F0BDB002F0DDB0B4B9E6015
:104D4000DF60DDE70D4B0E4A3F210E48FDF7BEFE4A
:104D5000012676420C4FEFE7084B094A3F210948EC
:104D6000FDF7B4FED0180020882C0110E0180020B8
:104D7000C435011024360110843501106023011060
:104D8000F43501107C230110FFFFFF7F10B50400F4
:104D9000094B1B78002B08D0084901230B722368AC
:104DA000DB6920009847012010BD00F0E6FB024BB4
:104DB00001221A70F0E7C0469CDC0020D0180020C9
:104DC00010B5040003689B690349984723681B6A70
:104DD00002492000984710BDE0180020D01800209C
:104DE000002070477047000010B5FDF711F9002949
:104DF00006DB0BD0FA2292000023FFF777F810BDF4
:104E0000054B064A3F210648FDF760FEFA2189005E
:104E1000FFF72EF8F3E7C04660230110F4350110C8
:104E20007C230110083000E018000368002B03D039
:104E30008B42F9D1002002E001600B600120704735
:104E4000083000E018000368002B05D08B42F9D130
:104E50000B680360012000E000207047043000E090
:104E600018000368002B03D08B42F9D1002002E028
:104E700001600B6001207047043000E018000368F7
:104E8000002B05D08B42F9D10B680360012000E0B4
:104E900000207047F8B506008068002833D0FDF781
:104EA000B7F8002906DB04000D0008239C46B44433
:104EB00000220CE0154B164A3F211648FDF706FE6E
:104EC000154B164A42211648FDF700FE9C466346E4
:104ED0001B68002B12D0200029009E68DF68801B11
:104EE000B9410029F2DB34003D000E490A684968E7
:104EF000724079400A43E3D06246E7E7002A03D0D4
:104F0000106803681360F8BD1000FCE7602301100F
:104F1000AC3601107C23011038360110C436011064
:104F20005C360110882C0110F0B583B0104B5C6822
:104F30001B6800930194836804E0DC689B6800931D
:104F400001940B00002B0CD01968009C019D9E68F9
:104F5000DF68A41BBD41002DEFDCF2D1002CECD1A9
:104F6000EFE7009B019C0361446103B0F0BDC046C4
:104F7000882C011070B506000D0002E04B68280077
:104F800098472800FFF786FF011EF7D16C6800E004
:104F90002468002C09D0237A002BF9D00023237237
:104FA0002100280063689847F2E72800FFF7BCFF5C
:104FB0002B696C6933607460300070BD10B5104AA5
:104FC000104B12184B419900900F0843990F504015
:104FD00059400D4A0D4BFFF7E1FA03004A01C00E9C
:104FE0001043CA0E58405140094A0A4BFFF7D6FAFF
:104FF00003004A00C00F1043CA0F5840514010BD73
:10500000157C4A7FB979379EB9E5E41C6D4758BFD6
:10501000EB113113BB49D094F0B5C64600B584B04E
:1050200002000B0013498C461BE0614601C9009049
:105030008C4600210191910E9F010F43960100982B
:1050400001998019794102900391110C1D040D43BF
:1050500014040298039900196941801A99410200C9
:105060000B0005498C45E0D91000190004B080BC44
:10507000B846F0BD001C0420FF1F0420F0B5CE464A
:10508000474680B583B08046036844680093019426
:1050900003008068D96801E0FCF7BAFF009C019D1D
:1050A00023002B4302D103000B43F5D0009C019D4C
:1050B000A60FAB003343A2002E002500AD185E41C1
:1050C0006B0E9946F3019C464B46624613431F0004
:1050D000730EEA0113431E005B0F9C46FB006446FF
:1050E0002343F20092197B41009C019D604069407E
:1050F000260A2F063E432D0A009C24062C434440DA
:1051000035004D40070C0E043E4307047C407540BB
:105110004646346075604C01C50E2C434001C90EF3
:105120000843B460F0601000190003B0C0BCB94679
:10513000B046F0BDF0B5DE4657464E464546E0B5B2
:1051400083B00190574B9B69DB0410D5564BDA6B4B
:10515000E0231340402B0AD0EFF305839846019BD0
:10516000002B0AD000239946002400258AE04F4BEB
:105170004F4A81214F48FDF7A9FC4F4B4C4A8621ED
:105180004C48FDF7A3FC4D4B18685968FCF7E2FD4D
:10519000EFF3108672B64A4B1B68002BFBD0BFF3AF
:1051A0005F8F464B19685A688A4516D0BFF35F8FE8
:1051B000434B00221A6086F310885B46002B5ED1B9
:1051C0003E4B1A6892465F684346002BDBD03B4B50
:1051D00018685968FCF728FFDAE7BA42E6D12000E0
:1051E0002900001969412F4BDA6901231340034359
:1051F0001C000D00FCF70CFF02000B1E23DB0A2035
:10520000002112184B41002B23DB002B25DB2B49FF
:105210000A604B6001994B1E4B452DD1294A202332
:105220005B42CB181FD4116899400B00126801999A
:105230008A4022432B4314001D00224B1C605D60FA
:1052400001239B46B2E7204B204A3F212048FDF72F
:105250003DFC012252421F4BD7E71B4B1B4A3F210B
:105260001B48FDF733FC202301981B1A1168D94015
:10527000536883400B43D9E701239B4696E70123FC
:105280009C46E144019B994502D200239B4697E747
:105290002000290003B0F0BCBB46B246A946A04698
:1052A000F0BDC0460000064000800040F43601100A
:1052B0001C380110BC370110EC3E0110E01E00202C
:1052C000300100D0901D002060230110043801102F
:1052D0007C230110FFFFFF7F10B588B03B4C206896
:1052E0006168FFF799FE20606160FFF767FE049B2D
:1052F0005840059B019359400490059102A800F085
:1053000011F902980399FFF759FE069B0193584043
:10531000079B01935940069007914020FFF70AFF31
:10532000FFF74CFE049B5840059B019359400490A5
:105330000591FCF76DFEFFF741FE069B0193584077
:10534000079B0193594006900791EFF3108472B6C2
:105350001F4B1B68002BFBD0BFF35F8F1D4B1B78CF
:10536000002B24D1032B09D85A1CD2001A498C4691
:10537000624452681F2A03D00133F3E701235B42E2
:105380005A1C1DD0DBB2154A13700133DB00124AE0
:105390009446634405225A6004A8FFF76FFE10226A
:1053A00004A90F48FFF76CF90A4B01221A70BFF3EA
:1053B0005F8F074B00221A6084F3108808B010BD7D
:1053C000084B094AE9210948FDF780FB781D0020B8
:1053D000300100D0A3DC00200000034097DC002057
:1053E000801D0020F83701103C380110BC37011037
:1053F00070B586B03E4B1B78002B00D16EE01022BA
:105400003C4902A8FFF73CF93B4B1C78E4B2FCF79F
:10541000FFFDFFF7D3FD029B5840039B01935940CA
:10542000029003910120FFF785FEFFF7C7FD049B63
:1054300001935840059B01935940049005912F4BCF
:105440001A78531CDB002E4958582E4B984248D0EE
:105450000021FFF7B3FD029B1840039B0193194005
:1054600002900391EFF3108672B6274B1B68002B56
:10547000FBD0BFF35F8F204B1B78DBB2A34213D06E
:105480001C4B02991A685140039A01925868424095
:10549000029103929A68DB68049901914A40059948
:1054A00001914B400492059302A8FFF7E7FD050028
:1054B0000C00102202A90F48FFF7E2F80E4A1378F9
:1054C0000133DBB21370BFF35F8F0F4B00221A6002
:1054D00086F310882800210006B070BDFFF7FCFE9F
:1054E0008DE70132D2000B000021D150B0E7C04659
:1054F000A3DC0020801D002098DC002097DC002029
:1055000000000340FFFFFF00300100D010B5FFF79F
:105510006FFF10BD10B5024800F00CF810BDC0467A
:105520002CDA002010B508220149FFF7A9F810BDB8
:105530002CDA002070B588B0040004AD0026049673
:105540000922002105A8FFF795F8009609220021FD
:1055500001A8FFF78FF84B232B700D226946280016
:105560000CF0BAFD002304E05A1D69468A5CE2543F
:105570000133072BF8DD08B070BD10B501F052FC07
:1055800000F0C4FB00F09CFD00F040FE05F0FCF9CB
:1055900001F0D2FC00F017FA05F02EF910BD03025D
:1055A000000A184380B2704703060202FF21090473
:1055B0000A401343020AFF2109020A401343000E66
:1055C0001843704700280AD0C07A002809D1431C2C
:1055D0009B00054A9B58002B04D0012002E00020CC
:1055E00000E000207047C046C42B002010B5FFF734
:1055F0008DFF80B2002301E00133DBB2032B0FD813
:105600001A01D218120107498A18927A022AF3D194
:105610001A01D21812018A1812898242ECD1E6E7E7
:1056200010BDC046CC2B0020F0B5D6464F464646AE
:10563000C0B506008846002401E00134E4B2032C22
:1056400023D8250063001B199B00314A9F58002F67
:10565000F3D063001B199B00D3181B7AB342ECD123
:1056600030018019000110302A4BC01892466300A7
:1056700099461B199B0053445A684146B8474D440C
:10568000AD0000235246AB50D7E7002301E00133C1
:10569000DBB2032B1BD8B342F9D01A01D218120186
:1056A0001C498A18927A022AF1D11A01D2181201E1
:1056B0008A18D07B3201921912018A18D27B90424B
:1056C000E5D133019B191B01CB180422DA73330196
:1056D0009B191B010F4AD318DB7B032B04D9E0BCB9
:1056E000BA46B146A846F0BD0B4C9B00185905F0D0
:1056F00049FC084A300183191B01D318DB7B9B004E
:10570000002119518019000110180423C373E6E722
:10571000942B0020CC2B0020842B0020F0B5D64603
:105720004F464646C0B584B08046030143441B0142
:10573000534AD318DB7A012B34D89B00514A9B582B
:10574000002B32D004014444240110344C4BE418A3
:1057500020000CF021FBA022123081B292003620F2
:1057600000F0E8FF8146002800D185E001AD0C2261
:1057700000212800FEF77EFF43461B0143441B0126
:105780003F4AD3181889FFF70AFF28800123AB701E
:10579000FF33AB800C222900484601F0F3F9661E66
:1057A0000C2737E03848FDF72BFA0021FFF73CFFC4
:1057B0004346180140440701314BDF190023BB72F7
:1057C0000024200004B0E0BCBA46B146A846F0BDB3
:1057D0000134E4B2013633782E2B01D0002BF7D1FF
:1057E000731B9BB29A463B19284A934216DC22004F
:1057F0003900484601F060FA7B1C9BB252462900F2
:10580000484601F00BFA3C19A5B26F1CBFB23378C1
:10581000002B09D0013635000024DCE7484600F0B3
:105820004BFF06246442CCE700223900484601F0D1
:1058300043FA0235ABB28022520069460A804A80A0
:10584000FC3A484601F0EAF90D4943461B0142463D
:105850009A1812018A18D07BD37A9B00094AD21871
:1058600080000B4940583523494605F003FB0400EE
:10587000484600F021FFA4E701246442A1E7C046A6
:10588000CC2B0020C42B0020B4390110FEFF0000F7
:10589000842B002070B50400000100190001414B69
:1058A000C018032C20D823011B191B013D4AD31813
:1058B0009B7A022B34D01AD8002B14D0012B00D0A5
:1058C0006CE0FFF793FE3749220113191B01CB1837
:1058D0001881022098720020D87201251D73587318
:1058E0002000FFF71BFF70BD2F48FDF789F9032B40
:1058F00054D123011B191B012A4A9B58002B07D0A6
:10590000013B22011219120126495350002BEAD102
:10591000200104192401234804190023A372E2E79B
:1059200023011B191B011F4AD218137B013BDBB259
:105930001373002BD7D123011B191B01194AD2184D
:10594000537B0133DBB25373042B09D022011219AC
:10595000120114498A1813732000FFF7DFFEC2E713
:10596000FFF730FE00280DD00E49220113191B014C
:10597000CB18D87A0130D872012018731A0000238E
:105980005373E9E700212000FFF74EFE20010419C0
:105990002401044B1C190023A372A4E70348FDF75C
:1059A0002FF9C046CC2B0020CC390110E83901106A
:1059B00010B5002404E02000FFF76CFF0134E4B2CE
:1059C000032CF8D910BD7047012800D97047002971
:1059D00004D080000A68044BC250F7E78000034BF4
:1059E0001A68014BC250F1E7C42B0020C05C0110C3
:1059F00010B5FFF7DDFF10BD30B583B06B46002258
:105A0000DA8001231D000540184206D0002904DD7C
:105A100002786B46DA71013901300322130003402A
:105A2000104209D0012903DD03880239023003E066
:105A3000002301E00839200007290CDD0268D21894
:105A4000934200D901320400083443689B189A42FB
:105A5000F0D90133EEE71A0C1B041B0CD31803E03A
:105A600002889B18023902300129F9DC002902DD85
:105A700001786A4691716A4606321288D318180C6A
:105A80001B041B0CC318180C1B041B0CC018002D86
:105A900005D003061B0C020AFF201040184380B2F9
:105AA00003B030BDF0B583B00600019115001C00B5
:105AB000002700E03668002E15D071897068FFF766
:105AC0009BFF0019040C0004000C24187389DB07E9
:105AD000F0D57B425F41FFB22206120C230AFF245D
